:030000000200F308
:10000B0002017F75F008758200EF2FFFEE33FECDF6
:10001B0033CDCC33CCC58233C5829BED9AEC99E5BD
:10002B008298400CF582EE9BFEED9AFDEC99FC0F4D
:10003B00D5F0D6E4CEFBE4CDFAE4CCF9A88222B815
:10004B0000C1B90059BA002DEC8BF084CFCECDFC9A
:10005B00E5F0CBF97818EF2FFFEE33FEED33FDEC27
:10006B0033FCEB33FB10D703994004EB99FB0FD810
:10007B00E5E4F9FA227818EF2FFFEE33FEED33FDAE
:10008B00EC33FCC933C910D7059BE99A4007EC9BAD
:10009B00FCE99AF90FD8E0E4C9FAE4CCFB2275F03D
:1000AB0010EF2FFFEE33FEED33FDCC33CCC833C84E
:1000BB0010D7079BEC9AE899400AED9BFDEC9AFC54
:1000CB00E899F80FD5F0DAE4CDFBE4CCFAE4C8F903
:1000DB0022EB9FF5F0EA9E42F0E99D42F0E89C4549
:1000EB00F0228A838982E473787FE4F6D8FD7581E8
:1000FB003202013A0202A9E493A3F8E493A340036A
:10010B00F68001F208DFF48029E493A3F854072466
:10011B000CC8C333C4540F4420C8834004F4568026
:10012B000146F6DFE4800B010204081020408090AA
:10013B00037AE47E019360BCA3FF543F30E509547E
:10014B001FFEE493A360010ECF54C025E060A840CE
:10015B00B8E493A3FAE493A3F8E493A3C8C582C8C5
:10016B00CAC583CAF0A3C8C582C8CAC583CADFE99A
:10017B00DEE780BEC0E0C0F0C083C082C0D075D0C7
:10018B0000C000C001C002C003C004C005C006C04F
:10019B0007758A66758CFC752F00E52F75F003A427
:1001AB00241BF8860308E6FA08E64A4B6012E52F93
:1001BB0075F003A4241BF808E6FA08E6F91200ED23
:1001CB00052FE52FC3940440D1D007D006D005D01E
:1001DB0004D003D002D001D000D0D0D082D083D0B5
:1001EB00F0D0E0328B308A318932E4FFEF75F003C7
:1001FB00A4241BF8860308E6FA08E6F9E5308531F6
:10020B00838532826B7008E965827003EA658360CF
:10021B00320FBF04D7E4FFEF75F003A4241BF8865D
:10022B000308E6FA08E64A4B7015AA31A932EF75B6
:10023B00F003A4241BF8A63008A60208A601220F7F
:10024B00BF04D422E52B25E0F52BA2EAE433422BA5
:10025B00E52C25E0F52CA2EBE433422CE52D25E033
:10026B00F52DA2B2E433422DE52E25E0F52EA2B3F7
:10027B00E433422E22D2AFD2A95389F0438901D263
:10028B008C758A66758CFCE4FFEF75F003A4241B58
:10029B00F876000876000876000FBF04EC221202F5
:1002AB00801203591202D1BF0202B2801202F3BFB5
:1002BB000202B281120315BF0102B282120337BFD1
:1002CB0001E2B28380DEE527B4020AE52B700675E6
:1002DB0027017F0122E527B4010BE52BB4FF06753F
:1002EB0027027F02227F0022E528B4020AE52C7048
:1002FB00067528017F0122E528B4010BE52CB4FF1C
:10030B00067528027F02227F0022E529B4020AE546
:10031B002D70067529017F0122E529B4010BE52D0E
:10032B00B4FF067529027F02227F0022E52AB40260
:10033B000AE52E7006752A017F0122E52AB4010B0E
:10034B00E52EB4FF06752A027F02227F0022752B51
:10035B00FF752CFF752DFF752EFF75270275280273
:10036B00752902752A027BFF7A02794F0201EF0A87
:0C037B00093F065B4F666D7D077F6F0039
:00000001FF
