:10000000020003787FE4F6D8FD75813702004A02CA
:10001000008FE493A3F8E493A34003F68001F20871
:10002000DFF48029E493A3F85407240CC8C333C435
:10003000540F4420C8834004F456800146F6DFE4A0
:10004000800B01020408102040809001C0E47E0172
:100050009360BCA3FF543F30E509541FFEE493A313
:1000600060010ECF54C025E060A840B8E493A3FA25
:10007000E493A3F8E493A3C8C582C8CAC583CAF0B1
:10008000A3C8C582C8CAC583CADFE9DEE780BE75DA
:100090002CFFC2B6C2B412015A7B007A00792D122D
:1000A000019A1201D95019E52C25E0F52C7B007A34
:1000B00000792DFF1201627B007A00792D12019ADE
:1000C0001201F15019E52CC313F52C7B007A00794D
:1000D0002DFF1201627B007A00792D12019A120223
:1000E00009500E052C12015A7B007A00792D12015D
:1000F0009A1202215010E4F52CFB12015C7B007A6D
:1001000000792D12019A1202398097BB010CE58209
:1001100029F582E5833AF583E0225006E92582F845
:10012000E622BBFE06E92582F8E222E58229F58275
:10013000E5833AF583E49322F8BB010DE58229F5C6
:1001400082E5833AF583E8F0225006E92582C8F675
:1001500022BBFE05E92582C8F2227B007A00792DB8
:10016000AF2C8B358A368937E4FEAB35AA36A937F2
:100170008E82758300E41201380EBE08ED7E07EF13
:1001800060175401AB35AA36A9378E8275830012E9
:100190000138EFC313FF1E80E6228B358A3689377C
:1001A000E4FFAB35AA36A9378F8275830012010BA5
:1001B0002408F8E6FE74122FF8A6060FBF08E32203
:1001C0000A083F065B4F666D7D077F6F0A1A3F0680
:1001D0005B4F666D7D077F6F0030EA02C32212021B
:1001E0005C30EA02C32230EAFD12025C30EAF7D347
:1001F0002230EB02C32212025C30EB02C32230EB4E
:10020000FD12025C30EBF7D32230B202C32212029D
:100210005C30B202C32230B2FD12025C30B2F7D3BE
:100220002230B302C32212025C30B302C32230B3C5
:10023000FD12025C30B3F7D322E4FEAF0674122E37
:10024000F8E6FD12024B0EBE08F122E4F580539051
:10025000C7EF33333354F842908D80227F127EEB08
:05026000DEFEDFFC22C0
:00000001FF
