:100000000202D30205CF75A0FE20A4167F011205BF
:10001000AD20A40E30A4FD7F011205AD30A4F57F04
:10002000012220A5167F011205AD20A50E30A5FDE9
:100030007F011205AD30A5F57F022220A6167F01B3
:100040001205AD20A60E30A6FD7F011205AD30A62B
:10005000F57F032220A7167F011205AD20A70E30E1
:10006000A7FD7F011205AD30A7F57F0A2275A0FD1F
:1000700020A4167F011205AD20A40E30A4FD7F013F
:100080001205AD30A4F57F042220A5167F011205CC
:10009000AD20A50E30A5FD7F011205AD30A5F57F81
:1000A000052220A6167F011205AD20A60E30A6FD62
:1000B0007F011205AD30A6F57F062220A7167F012D
:1000C0001205AD20A70E30A7FD7F011205AD30A7A8
:1000D000F57F142275A0FB20A4167F011205AD2028
:1000E000A40E30A4FD7F011205AD30A4F57F0722D8
:1000F00020A5167F011205AD20A50E30A5FD7F01BC
:100100001205AD30A5F57F082220A6167F01120545
:10011000AD20A60E30A6FD7F011205AD30A6F57FFD
:10012000092220A7167F011205AD20A70E30A7FDDA
:100130007F011205AD30A7F57F1E2275A0F720A420
:10014000167F011205AD20A40E30A4FD7F0112051B
:10015000AD30A4F57F002220A5167F011205AD2049
:10016000A50E30A5FD7F011205AD30A5F57F322229
:1001700020A6167F011205AD20A60E30A6FD7F0138
:100180001205AD30A6F57F3C2220A7167F0112058F
:10019000AD20A70E30A7FD7F011205AD30A7F57F7A
:1001A00028227FFF22E88FF0A4CC8BF0A42CFCE95E
:1001B0008EF0A42CFC8AF0EDA42CFCEA8EF0A4CDE9
:1001C000A8F08BF0A42DCC3825F0FDE98FF0A42CFD
:1001D000CD35F0FCEB8EF0A4FEA9F0EB8FF0A4CFB0
:1001E000C5F02ECD39FEE43CFCEAA42DCE35F0FD61
:1001F000E43CFC2275F008758200EF2FFFEE33FE21
:10020000CD33CDCC33CCC58233C5829BED9AEC99EE
:10021000E58298400CF582EE9BFEED9AFDEC99FC90
:100220000FD5F0D6E4CEFBE4CDFAE4CCF9A88222D7
:10023000B800C1B90059BA002DEC8BF084CFCECDF7
:10024000FCE5F0CBF97818EF2FFFEE33FEED33FD30
:10025000EC33FCEB33FB10D703994004EB99FB0F15
:10026000D8E5E4F9FA227818EF2FFFEE33FEED33EC
:10027000FDEC33FCC933C910D7059BE99A4007EC64
:100280009BFCE99AF90FD8E0E4C9FAE4CCFB2275AB
:10029000F010EF2FFFEE33FEED33FDCC33CCC8333F
:1002A000C810D7079BEC9AE899400AED9BFDEC9AA1
:1002B000FCE899F80FD5F0DAE4CDFBE4CCFAE4C819
:1002C000F922EB9FF5F0EA9E42F0E99D42F0E89CAE
:1002D00045F022787FE4F6D8FD75812D02031A02DD
:1002E00004F0E493A3F8E493A34003F68001F2083A
:1002F000DFF48029E493A3F85407240CC8C333C463
:10030000540F4420C8834004F456800146F6DFE4CD
:10031000800B010204081020408090053DE47E011E
:100320009360BCA3FF543F30E509541FFEE493A340
:1003300060010ECF54C025E060A840B8E493A3FA52
:10034000E493A3F8E493A3C8C582C8CAC583CAF0DE
:10035000A3C8C582C8CAC583CADFE9DEE780BEE597
:100360001AB40A1AE5262522F526E5253521F525B4
:10037000E5243520F524E523351FF523805AE51AB9
:10038000B4141BC3E5269522F526E5259521F52510
:10039000E5249520F524E523951FF523803AE51AF9
:1003A000B41E15AF26AE25AD24AC23AB22AA21A9DD
:1003B00020A81F1201A58018E51AB4281BAF26AE8D
:1003C00025AD24AC23AB22AA21A920A81F120230FC
:1003D0008F268E258D248C23AF26AE25AD24AC230D
:1003E00012046EE4F51A228F28E51A7044AF1EAE8F
:1003F0001DAD1CAC1B7B0AFAF9F81201A58F1E8EED
:100400001D8D1C8C1BE4FCFDFEE51E2528F51EEE53
:10041000351DF51DED351CF51CEC351BF51B851E3A
:1004200026851D25851C24F523AF1EAE1DAD1C8021
:1004300038AF22AE21AD20AC1FE47B0AFAF9F812E6
:1004400001A58F228E218D208C1FE4FCFDFEE5226C
:100450002528F522EE3521F521ED3520F520EC3566
:100460001FF51FAF22AE21AD20FC12046E228F2C8F
:100470008E2B8D2A8C29E4F52D7412252DF8E4F6A7
:10048000052DE52DB408F2E4FFFEFDFCAB2CAA2BF4
:10049000A92AA829C31202C2700485081922752D41
:1004A00007E4FFFEFDFCAB2CAA2BA92AA829C31246
:1004B00002C2603BE47B0AFAF9F8AF2CAE2BAD2AFE
:1004C000AC2912023074082BF8E6FF7412252DF8BF
:1004D000A607AF2CAE2BAD2AAC29E47B0AFAF9F8BB
:1004E0001202308F2C8E2B8D2A8C29152D80B22252
:1004F000C2B6C2B41200068F27E527F4603AE5279A
:10050000C39400400CE527D3940950051203E780FB
:1005100027E527C3940A400EE527D394285007AF58
:10052000271205818012E527B4320512055F800885
:10053000E527B43C0312035F12059B80B70A083F0E
:10054000065B4F666D7D077F6F041B000000000493
:100550001F00000000042300000000011A0000E456
:10056000F51EF51DF51CF51BF522F521F520F51FEF
:10057000F526F525F524F523F51AFFFEFDFC02040A
:100580006E8F2812035F85281AE4F522F521F520E5
:10059000F51FF51EF51DF51CF51B22E4FEAF0674D4
:1005A000122EF8E6FD1205BE0EBE08F122AE071FA0
:1005B000EE600A7E127DEBDDFEDEFC80F022E4F5CB
:1005C000805390C7EF33333354F842908D8022B27A
:0205D000803277
:00000001FF
