:1000000002024175A0FE20A41212039520A40C3018
:10001000A4FD12039530A4F77F072220A512120336
:100020009520A50C30A5FD12039530A5F77F082279
:1000300020A61212039520A60C30A6FD12039530BF
:10004000A6F77F092220A71212039520A70C30A73C
:10005000FD12039530A7F77F0A2275A0FD20A41298
:1000600012039520A40C30A4FD12039530A4F77F51
:100070000B2220A51212039520A50C30A5FD12031A
:100080009530A5F77F0C2220A61212039520A60C0E
:1000900030A6FD12039530A6F77F0D2220A712127D
:1000A000039520A70C30A7FD12039530A7F77F0E0C
:1000B0002275A0FB20A41212039520A40C30A4FDED
:1000C00012039530A4F77F0F2220A512120395206A
:1000D000A50C30A5FD12039530A5F77F102220A6B0
:1000E0001212039520A60C30A6FD12039530A6F738
:1000F0007F112220A71212039520A70C30A7FD1212
:10010000039530A7F77F122275A0F720A4121203DF
:100110009520A40C30A4FD12039530A4F77F132280
:1001200020A51212039520A50C30A5FD12039530D1
:10013000A5F77F142220A61212039520A60C30A644
:10014000FD12039530A6F77F152220A71212039502
:1001500020A70C30A7FD12039530A7F77F16227F4A
:10016000002275F008758200EF2FFFEE33FECD33CD
:10017000CDCC33CCC58233C5829BED9AEC99E58218
:1001800098400CF582EE9BFEED9AFDEC99FC0FD5A4
:10019000F0D6E4CEFBE4CDFAE4CCF9A88222B80094
:1001A000C1B90059BA002DEC8BF084CFCECDFCE55F
:1001B000F0CBF97818EF2FFFEE33FEED33FDEC3383
:1001C000FCEB33FB10D703994004EB99FB0FD8E508
:1001D000E4F9FA227818EF2FFFEE33FEED33FDEC51
:1001E00033FCC933C910D7059BE99A4007EC9BFC47
:1001F000E99AF90FD8E0E4C9FAE4CCFB2275F010D3
:10020000EF2FFFEE33FEED33FDCC33CCC833C810F7
:10021000D7079BEC9AE899400AED9BFDEC9AFCE825
:1002200099F80FD5F0DAE4CDFBE4CCFAE4C8F92272
:10023000EB9FF5F0EA9E42F0E99D42F0E89C45F024
:1002400022787FE4F6D8FD75811E02028802034FF2
:10025000E493A3F8E493A34003F68001F208DFF4EB
:100260008029E493A3F85407240CC8C333C4540F63
:100270004420C8834004F456800146F6DFE4800B36
:100280000102040810204080900388E47E019360FE
:10029000BCA3FF543F30E509541FFEE493A3600163
:1002A0000ECF54C025E060A840B8E493A3FAE493CD
:1002B000A3F8E493A3C8C582C8CAC583CAF0A3C87B
:1002C000C582C8CAC583CADFE9DEE780BE8F1D8E3E
:1002D0001C8D1B8C1AE4F51E7412251EF8E4F6051D
:1002E0001EE51EB408F2E4FFFEFDFCAB1DAA1CA92E
:1002F0001BA81AC3120230700485081922751E0744
:10030000E4FFFEFDFCAB1DAA1CA91BA81AC3120228
:1003100030603BE47B0AFAF9F8AF1DAE1CAD1BACB4
:100320001A12019E74082BF8E6FF7412251EF8A617
:1003300007AF1DAE1CAD1BAC1AE47B0AFAF9F8122C
:10034000019E8F1D8E1C8D1B8C1A151E80B222C221
:10035000B6C2B4120003EF6007E4FCFDFE1202CD4A
:1003600012036580EEE4FEAF0674122EF8E6FD126D
:1003700003770EBE08F122E4F5805390C7EF3333C4
:100380003354F842908D80220A083F065B4F666D19
:0E0390007D077F6F007F127EEBDEFEDFFC221A
:00000001FF
