:0300000002000EED
:10000B0002009A787FE4F6D8FD7581410200550213
:10001B0001F1E493A3F8E493A34003F68001F20803
:10002B00DFF48029E493A3F85407240CC8C333C42A
:10003B00540F4420C8834004F456800146F6DFE495
:10004B00800B010204081020408090021AE47E010C
:10005B009360BCA3FF543F30E509541FFEE493A308
:10006B0060010ECF54C025E060A840B8E493A3FA1A
:10007B00E493A3F8E493A3C8C582C8CAC583CAF0A6
:10008B00A3C8C582C8CAC583CADFE9DEE780BEC084
:10009B00E0C0F0C083C082C0D075D000C000C001EA
:1000AB00C002C003C004C005C006C007758A6675D0
:1000BB008CFC753D00E53D75F003A42428F8860300
:1000CB0008E6FA08E64A4B6012E53D75F003A424F6
:1000DB0028F808E6FA08E6F9120197053DE53DC355
:1000EB00940440D1D007D006D005D004D003D00261
:1000FB00D001D000D0D0D082D083D0F0D0E0328BE2
:10010B003F8A408941E4FFEF75F003A42428F88669
:10011B000308E6FA08E6F9E53F8540838541826BE3
:10012B007008E965827003EA658360320FBF04D7FC
:10013B00E4FFEF75F003A42428F8860308E6FA0819
:10014B00E64A4B7015AA40A941EF75F003A4242889
:10015B00F8A63F08A60208A601220FBF04D422BBB3
:10016B00010CE58229F582E5833AF583E0225006FE
:10017B00E92582F8E622BBFE06E92582F8E222E5B4
:10018B008229F582E5833AF583E493228A83898277
:10019B00E4737580FFE53C7004D2908002C290C27C
:1001AB0092D292C291D2917434253CF8E6F4F58048
:1001BB00053CE53CC394084003E4F53C22D2AFD2A6
:1001CB00A95389F0438901D28C758A66758CFCE43E
:1001DB00FFEF75F003A42428F87600087600087664
:1001EB00000FBF04EC22E4F53E1201C81202727438
:1001FB0008253EF9E4FAFB12023E7408253EF53E53
:10020B007F64120260E53EB420E5E4F53E80E02019
:10021B002008000000181800000000003C24243CBB
:10022B000000007E424242427E00FF81818181813B
:10023B0081FF008B3F8A408941E4FFAB3FAA40A975
:10024B00418F8275830012016AFE74342FF8A60663
:10025B000FBF08E722AE071FEE600B007E027DC7C3
:10026B00DDFEDEFC80EF22E4F53CC2B5C2B47BFFC1
:07027B007A01799D02010ADE
:00000001FF
