:0A000000020234B2EE7F180202255E
:10000B0002000EC0E0C0F0C083C082C0D075D0002B
:10001B00C000C001C002C003C004C005C006C007B9
:10002B00758A66758CFC751C00E51C75F003A424A1
:10003B0008F8860308E6FA08E64A4B6012E51C75D9
:10004B00F003A42408F808E6FA08E6F912025505AD
:10005B001CE51CC3940440D1D007D006D005D004B6
:10006B00D003D002D001D000D0D0D082D083D0F03A
:10007B00D0E0328B1D8A1E891FE4FFEF75F003A4BD
:10008B002408F8860308E6FA08E6F9E51D851E83C1
:10009B00851F826B7008E965827003EA65836032A5
:1000AB000FBF04D7E4FFEF75F003A42408F8860311
:1000BB0008E6FA08E64A4B7015AA1EA91FEF75F061
:1000CB0003A42408F8A61D08A60208A601220FBF48
:1000DB0004D42212015312020412017CBF01091233
:1000EB00000312017CBF02F712019EBF010912022D
:1000FB004012019EBF02F71201C0BF010912024755
:10010B001201C0BF02F71201E2BF01CD12024E1263
:10011B0001E2BF02F780C2E51825E0F518A2EAE478
:10012B00334218E51925E0F519A2EBE4334219E542
:10013B001A25E0F51AA2B2E433421AE51B25E0F5C5
:10014B001BA2B3E433421B22D2AFD2A95389F04393
:10015B008901758A66758CFCD28CE4FFEF75F00310
:10016B00A42408F876000876000876000FBF04EC8C
:10017B0022E514B4020AE51870067514017F0122FA
:10018B00E514B4010BE518B4FF067514027F0222C7
:10019B007F0022E515B4020AE51970067515017F7B
:1001AB000122E515B4010BE519B4FF067515027FA5
:1001BB0002227F0022E516B4020AE51A70067516B4
:1001CB00017F0122E516B4010BE51AB4FF06751683
:1001DB00027F02227F0022E517B4020AE51B70069C
:1001EB007517017F0122E517B4010BE51BB4FF0660
:1001FB007517027F02227F00227518FF7519FF7594
:10020B001AFF751BFF75140275150275160275170B
:10021B00027BFF7A01792202007EAD071FED600899
:10022B007E021EEE60F480FA22787FE4F6D8FD752C
:10023B00811F0200DEB2EE7F15020225B2EE7F13A4
:10024B00020225B2EE7F110202258A838982E473B2
:00000001FF
