:100000000200E275F008758200EF2FFFEE33FECD9F
:1000100033CDCC33CCC58233C5829BED9AEC99E5C8
:100020008298400CF582EE9BFEED9AFDEC99FC0F58
:10003000D5F0D6E4CEFBE4CDFAE4CCF9A88222B820
:1000400000C1B90059BA002DEC8BF084CFCECDFCA5
:10005000E5F0CBF97818EF2FFFEE33FEED33FDEC32
:1000600033FCEB33FB10D703994004EB99FB0FD81B
:10007000E5E4F9FA227818EF2FFFEE33FEED33FDB9
:10008000EC33FCC933C910D7059BE99A4007EC9BB8
:10009000FCE99AF90FD8E0E4C9FAE4CCFB2275F048
:1000A00010EF2FFFEE33FEED33FDCC33CCC833C859
:1000B00010D7079BEC9AE899400AED9BFDEC9AFC5F
:1000C000E899F80FD5F0DAE4CDFBE4CCFAE4C8F90E
:1000D00022EB9FF5F0EA9E42F0E99D42F0E89C4554
:1000E000F022787FE4F6D8FD758122020129020111
:1000F000F0E493A3F8E493A34003F68001F208DF51
:10010000F48029E493A3F85407240CC8C333C454DF
:100110000F4420C8834004F456800146F6DFE48093
:100120000B010204081020408090025CE47E0193E1
:1001300060BCA3FF543F30E509541FFEE493A36065
:10014000010ECF54C025E060A840B8E493A3FAE4C0
:1001500093A3F8E493A3C8C582C8CAC583CAF0A311
:10016000C8C582C8CAC583CADFE9DEE780BE8F2161
:100170008E208D1F8C1EE4F52274122522F8E4F6E1
:100180000522E522B408F2E4FFFEFDFCAB21AA2023
:10019000A91FA81EC31200D1700485081922752258
:1001A00007E4FFFEFDFCAB21AA20A91FA81EC31275
:1001B00000D1603BE47B0AFAF9F8AF21AE20AD1F15
:1001C000AC1E12003F74082BF8E6FF74122522F8CB
:1001D000A607AF21AE20AD1FAC1EE47B0AFAF9F8EA
:1001E00012003F8F218E208D1F8C1E152280B2227F
:1001F000751A00751B64E4F51CF51DC2B6C2B4E5A2
:100200001DB4E828E51CB40323E4F51CF51DC3E583
:100210001A648094804015AE1AAF1BEE3395E0FD52
:10022000FC12016EE51B151B7002151A051DE51D5C
:100230007002051C12023980C6E4FEAF0674122E4D
:10024000F8E6FD12024B0EBE08F122E4F580539051
:10025000C7EF33333354F842908D80220A083F06AB
:090260005B4F666D7D077F6F00A6
:00000001FF
