:030000000200F308
:10000B0002020175F008758200EF2FFFEE33FECD73
:10001B0033CDCC33CCC58233C5829BED9AEC99E5BD
:10002B008298400CF582EE9BFEED9AFDEC99FC0F4D
:10003B00D5F0D6E4CEFBE4CDFAE4CCF9A88222B815
:10004B0000C1B90059BA002DEC8BF084CFCECDFC9A
:10005B00E5F0CBF97818EF2FFFEE33FEED33FDEC27
:10006B0033FCEB33FB10D703994004EB99FB0FD810
:10007B00E5E4F9FA227818EF2FFFEE33FEED33FDAE
:10008B00EC33FCC933C910D7059BE99A4007EC9BAD
:10009B00FCE99AF90FD8E0E4C9FAE4CCFB2275F03D
:1000AB0010EF2FFFEE33FEED33FDCC33CCC833C84E
:1000BB0010D7079BEC9AE899400AED9BFDEC9AFC54
:1000CB00E899F80FD5F0DAE4CDFBE4CCFAE4C8F903
:1000DB0022EB9FF5F0EA9E42F0E99D42F0E89C4549
:1000EB00F0228A838982E473787FE4F6D8FD7581E8
:1000FB002C02013A020313E493A3F8E493A3400305
:10010B00F68001F208DFF48029E493A3F854072466
:10011B000CC8C333C4540F4420C8834004F4568026
:10012B000146F6DFE4800B010204081020408090AA
:10013B000347E47E019360BCA3FF543F30E50954B1
:10014B001FFEE493A360010ECF54C025E060A840CE
:10015B00B8E493A3FAE493A3F8E493A3C8C582C8C5
:10016B00CAC583CAF0A3C8C582C8CAC583CADFE99A
:10017B00DEE780BE8F2B8E2A8D298C28E4F52C741C
:10018B0013252CF8E4F6052CE52CB408F2E4FFFE5D
:10019B00FDFCAB2BAA2AA929A828C31200DC7004EA
:1001AB0085091A22752C07E4FFFEFDFCAB2BAA2A4E
:1001BB00A929A828C31200DC603BE47B0AFAF9F8F2
:1001CB00AF2BAE2AAD29AC2812004A74092BF8E6E6
:1001DB00FF7413252CF8A607AF2BAE2AAD29AC283C
:1001EB00E47B0AFAF9F812004A8F2B8E2A8D298CA0
:1001FB0028152C80B222C0E0C0F0C083C082C0D0D2
:10020B0075D000C000C001C002C003C004C005C04F
:10021B0006C007758A66758CFC752700E52775F097
:10022B0003A4241BF8860308E6FA08E64A4B60127F
:10023B00E52775F003A4241BF808E6FA08E6F91283
:10024B0000ED0527E527C3940440D1D007D006D095
:10025B0005D004D003D002D001D000D0D0D082D0B2
:10026B0083D0F0D0E0328B288A29892AE4FFEF75FE
:10027B00F003A4241BF8860308E6FA08E6F9E52840
:10028B00852983852A826B7008E965827003EA658C
:10029B008360320FBF04D7E4FFEF75F003A4241B78
:1002AB00F8860308E6FA08E64A4B7015AA29A92A2C
:1002BB00EF75F003A4241BF8A62808A60208A601D4
:1002CB00220FBF04D422D2AFD2A95389F0438901A4
:1002DB00D28C758A66758CFCE4FFEF75F003A42451
:1002EB001BF876000876000876000FBF04EC22742A
:1002FB00132508F8E6FDAF081203260508E508C329
:10030B0094084003E4F508221202D11203377F3917
:10031B007E307D007C0012017F80FEE4F5805390DF
:10032B00C7EF33333354F842908D8022C2B6C2B438
:10033B00E4F5087BFF7A0279FA0202710A093F069B
:09034B005B4F666D7D077F6F00BA
:00000001FF
