:10000000020003787FE4F6D8FD75812D02004A02D4
:10001000008FE493A3F8E493A34003F68001F20871
:10002000DFF48029E493A3F85407240CC8C333C435
:10003000540F4420C8834004F456800146F6DFE4A0
:10004000800B010204081020408090011DE47E0115
:100050009360BCA3FF543F30E509541FFEE493A313
:1000600060010ECF54C025E060A840B8E493A3FA25
:10007000E493A3F8E493A3C8C582C8CAC583CAF0B1
:10008000A3C8C582C8CAC583CADFE9DEE780BEE46B
:10009000F52AF52BC2B5C2B4E4F52CF52DC3E52B3A
:1000A000941AE52A940050087408252BF8E6801667
:1000B000C3E52B941AE52A9400400FE52B941EE526
:1000C0002A94005005E4FF12013AC3E52D94E8E5B7
:1000D0002C9403500D1200FA052DE52D70EC052C23
:1000E00080E8052BE52B7002052AC3941EE52A94AF
:1000F0000040A5E4F52AF52B809EE4FF7580FFEF14
:100100007004D2908002C290C292D292C291D291D7
:1001100074222FF8E6F4F5800FBF08E0221A08F8E1
:100120000AECAFEC8AF80010F997F188AAFFAA88C8
:1001300000140AF59292F50A14007E0774212EF835
:10014000E6FD74222EF8A605DEF274222EF8A6072C
:01015000228C
:00000001FF
