:100000000200E275F008758200EF2FFFEE33FECD9F
:1000100033CDCC33CCC58233C5829BED9AEC99E5C8
:100020008298400CF582EE9BFEED9AFDEC99FC0F58
:10003000D5F0D6E4CEFBE4CDFAE4CCF9A88222B820
:1000400000C1B90059BA002DEC8BF084CFCECDFCA5
:10005000E5F0CBF97818EF2FFFEE33FEED33FDEC32
:1000600033FCEB33FB10D703994004EB99FB0FD81B
:10007000E5E4F9FA227818EF2FFFEE33FEED33FDB9
:10008000EC33FCC933C910D7059BE99A4007EC9BB8
:10009000FCE99AF90FD8E0E4C9FAE4CCFB2275F048
:1000A00010EF2FFFEE33FEED33FDCC33CCC833C859
:1000B00010D7079BEC9AE899400AED9BFDEC9AFC5F
:1000C000E899F80FD5F0DAE4CDFBE4CCFAE4C8F90E
:1000D00022EB9FF5F0EA9E42F0E99D42F0E89C4554
:1000E000F022787FE4F6D8FD75811902012902011A
:1000F000C1E493A3F8E493A34003F68001F208DF80
:10010000F48029E493A3F85407240CC8C333C454DF
:100110000F4420C8834004F456800146F6DFE48093
:100120000B01020408102040809001CFE47E01936F
:1001300060BCA3FF543F30E509541FFEE493A36065
:10014000010ECF54C025E060A840B8E493A3FAE4C0
:1001500093A3F8E493A3C8C582C8CAC583CAF0A311
:10016000C8C582C8CAC583CADFE9DEE780BE7E088B
:100170007808E4F608DEFCEF700485100F227E0795
:10018000EF601A75F00A84741025F0F8E6FD740823
:100190002EF8A605EF75F00A84FF1E80E322E4FE28
:1001A000AF0674082EF8E6FD1201B00EBE08F1226B
:1001B000E4F5805390C7EF33333354F842908D8089
:1001C00022C2B6C2B47F6412016E12019E80FB0A85
:0C01D000103F065B4F666D7D077F6F00DF
:00000001FF
