:1000000002019D75F008758200EF2FFFEE33FECDE3
:1000100033CDCC33CCC58233C5829BED9AEC99E5C8
:100020008298400CF582EE9BFEED9AFDEC99FC0F58
:10003000D5F0D6E4CEFBE4CDFAE4CCF9A88222B820
:1000400000C1B90059BA002DEC8BF084CFCECDFCA5
:10005000E5F0CBF97818EF2FFFEE33FEED33FDEC32
:1000600033FCEB33FB10D703994004EB99FB0FD81B
:10007000E5E4F9FA227818EF2FFFEE33FEED33FDB9
:10008000EC33FCC933C910D7059BE99A4007EC9BB8
:10009000FCE99AF90FD8E0E4C9FAE4CCFB2275F048
:1000A00010EF2FFFEE33FEED33FDCC33CCC833C859
:1000B00010D7079BEC9AE899400AED9BFDEC9AFC5F
:1000C000E899F80FD5F0DAE4CDFBE4CCFAE4C8F90E
:1000D00022EB9FF5F0EA9E42F0E99D42F0E89C4554
:1000E000F022E4F52FF52EF52DF52CC2B6C2B4E4BE
:1000F000F533F532F531F5301202C45015E52F24F1
:1001000001F52FE4352EF52EE4352DF52DE4352CB3
:10011000F52C1202DA5015E52F240AF52FE4352EBE
:10012000F52EE4352DF52DE4352CF52C1202F0508A
:1001300015E52F2464F52FE4352EF52EE4352DF545
:100140002DE4352CF52C1203065016E52F24E8F586
:100150002FE52E3403F52EE4352DF52DE4352CF561
:100160002CAF2FAE2EAD2DAC2C120229E47F64FEF5
:10017000FDFCAB33AA32A931A830C31200D1400331
:100180000200EF12031CE5332401F533E43532F5A8
:1001900032E43531F531E43530F53080CF787FE425
:1001A000F6D8FD7581380201E40200E2E493A3F879
:1001B000E493A34003F68001F208DFF48029E4937E
:1001C000A3F85407240CC8C333C4540F4420C88375
:1001D0004004F456800146F6DFE4800B0102040877
:1001E000102040809002ABE47E019360BCA3FF54DA
:1001F0003F30E509541FFEE493A360010ECF54C0C5
:1002000025E060A840B8E493A3FAE493A3F8E4934C
:10021000A3C8C582C8CAC583CAF0A3C8C582C8CA54
:10022000C583CADFE9DEE780BE8F378E368D358C19
:1002300034E4F53874122538F8E4F60538E538B4B6
:1002400008F2E4FFFEFDFCAB37AA36A935A834C39B
:100250001200D1700485081922753807E4FFFEFDED
:10026000FCAB37AA36A935A834C31200D1603BE4F1
:100270007B0AFAF9F8AF37AE36AD35AC3412003F31
:1002800074082BF8E6FF74122538F8A607AF37AECE
:1002900036AD35AC34E47B0AFAF9F812003F8F37FB
:1002A0008E368D358C34153880B2220A083F065BB5
:1002B0004F666D7D077F6F0A1A3F065B4F666D7D47
:1002C000077F6F0030EA0812033F30EA02C3223092
:1002D000EAFD12033F30EAF7D32230EB0812033F66
:1002E00030EB02C32230EBFD12033F30EBF7D32299
:1002F00030B20812033F30B202C32230B2FD120303
:100300003F30B2F7D32230B30812033F30B302C3F9
:100310002230B3FD12033F30B3F7D322E4FEAF0621
:1003200074122EF8E6FD12032E0EBE08F122E4F53B
:10033000805390C7EF33333354F842908D80227F3F
:08034000127EEBDEFEDFFC2261
:00000001FF
