:0900000002000E8A838982E47378
:10000B0002009A787FE4F6D8FD75813B0200550219
:10001B00016AE493A3F8E493A34003F68001F2088A
:10002B00DFF48029E493A3F85407240CC8C333C42A
:10003B00540F4420C8834004F456800146F6DFE495
:10004B00800B01020408102040809001FBE47E012C
:10005B009360BCA3FF543F30E509541FFEE493A308
:10006B0060010ECF54C025E060A840B8E493A3FA1A
:10007B00E493A3F8E493A3C8C582C8CAC583CAF0A6
:10008B00A3C8C582C8CAC583CADFE9DEE780BEC084
:10009B00E0C0F0C083C082C0D075D000C000C001EA
:1000AB00C002C003C004C005C006C007758A6675D0
:1000BB008CFC753700E53775F003A42422F8860312
:1000CB0008E6FA08E64A4B6012E53775F003A424FC
:1000DB0022F808E6FA08E6F91200030537E537C3FC
:1000EB00940440D1D007D006D005D004D003D00261
:1000FB00D001D000D0D0D082D083D0F0D0E0328BE2
:10010B00398A3A893BE4FFEF75F003A42422F88681
:10011B000308E6FA08E6F9E539853A83853B826BF5
:10012B007008E965827003EA658360320FBF04D7FC
:10013B00E4FFEF75F003A42422F8860308E6FA081F
:10014B00E64A4B7015AA3AA93BEF75F003A424229B
:10015B00F8A63908A60208A601220FBF04D422E490
:10016B00F5381201D212023DE538C3941A500874C7
:10017B00082538F8E6800EE538C3941A400BE538AD
:10018B00941E5005E4FF1202180538E538C3941E7F
:10019B004003E4F5387F6412022B80CC7580FFE5B9
:1001AB00367004D2908002C290C292D292C291D287
:1001BB0091742E2536F8E6F4F5800536E536C394B2
:1001CB00084003E4F53622D2AFD2A95389F0438914
:1001DB0001D28C758A66758CFCE4FFEF75F003A475
:1001EB002422F876000876000876000FBF04EC2274
:1001FB001A08F80AECAFEC8AF80010F997F188AA04
:10020B00FFAA8800140AF59292F50A14007E07746F
:10021B002D2EF8E6FD742E2EF8A605DEF28F2E227B
:10022B00AE071FEE600B007E027DC7DDFEDEFC809D
:10023B00EF22E4F536C2B5C2B47BFF7A0179A7028F
:02024B00010AA6
:00000001FF
