:100000000200E50201A275F008758200EF2FFFEEF5
:1000100033FECD33CDCC33CCC58233C5829BED9A34
:10002000EC99E58298400CF582EE9BFEED9AFDEC92
:1000300099FC0FD5F0D6E4CEFBE4CDFAE4CCF9A8D8
:100040008222B800C1B90059BA002DEC8BF084CFE0
:10005000CECDFCE5F0CBF97818EF2FFFEE33FEEDB7
:1000600033FDEC33FCEB33FB10D703994004EB99E1
:10007000FB0FD8E5E4F9FA227818EF2FFFEE33FEF4
:10008000ED33FDEC33FCC933C910D7059BE99A4029
:1000900007EC9BFCE99AF90FD8E0E4C9FAE4CCFB41
:1000A0002275F010EF2FFFEE33FEED33FDCC33CC95
:1000B000C833C810D7079BEC9AE899400AED9BFD1E
:1000C000EC9AFCE899F80FD5F0DAE4CDFBE4CCFA31
:1000D000E4C8F922EB9FF5F0EA9E42F0E99D42F078
:1000E000E89C45F022787FE4F6D8FD75811902017D
:1000F0002C02018FE493A3F8E493A34003F680015C
:10010000F208DFF48029E493A3F85407240CC8C351
:1001100033C4540F4420C8834004F456800146F68B
:10012000DFE4800B0102040810204080900182E48B
:100130007E019360BCA3FF543F30E509541FFEE4E9
:1001400093A360010ECF54C025E060A840B8E493AB
:10015000A3FAE493A3F8E493A3C8C582C8CAC583ED
:10016000CAF0A3C8C582C8CAC583CADFE9DEE78072
:10017000BEAE071FEE600A7E127DEBDDFEDEFC8068
:10018000F0220A083F065B4F666D7D077F6F001205
:10019000019BB2897F6412017180F7D2AFD2A8D2DD
:0501A0008822B280324C
:00000001FF
