:10000000020026309808859908D200C29832D201A1
:10001000C299321200B21200D4EF60FA7F6112006E
:10002000DF80F3020003787FE4F6D8FD75812002BB
:10003000006D020013E493A3F8E493A34003F68059
:1000400001F208DFF48029E493A3F85407240CC8D4
:10005000C333C4540F4420C8834004F4568001467F
:10006000F6DFE4800B01020408102040809000E7D6
:10007000E47E019360BCA3FF543F30E509541FFEAA
:10008000E493A360010ECF54C025E060A840B8E41B
:1000900093A3FAE493A3F8E493A3C8C582C8CAC59E
:1000A00083CAF0A3C8C582C8CAC583CADFE9DEE730
:1000B00080BED2AFD2ACC29FD29EC29DD29CD299FA
:1000C000C29853877F53890F438920758BFD758DA7
:1000D000FDD28E22300005C200AF08227F00223000
:0C00E00001FDC2018F9922C100C1010086
:00000001FF
