:10000000020003787FE4F6D8FD75811A02004A02E7
:100010000101E493A3F8E493A34003F68001F208FE
:10002000DFF48029E493A3F85407240CC8C333C435
:10003000540F4420C8834004F456800146F6DFE4A0
:10004000800B0102040810204080900113E47E011F
:100050009360BCA3FF543F30E509541FFEE493A313
:1000600060010ECF54C025E060A840B8E493A3FA25
:10007000E493A3F8E493A3C8C582C8CAC583CAF0B1
:10008000A3C8C582C8CAC583CADFE9DEE780BEBB94
:10009000010CE58229F582E5833AF583E0225006DA
:1000A000E92582F8E622BBFE06E92582F8E222E590
:1000B0008229F582E5833AF583E49322E4FF758093
:1000C000FFEF7004D2908002C290C292D292C2918D
:1000D000D29174082FF8E6F4F5800FBF08E0228B68
:1000E000188A19891AE4FFAB18AA19A91A8F827500
:1000F000830012008FFE74082FF8A6060FBF08E7D2
:1001000022C2B5C2B47B007A0079101200DF12005F
:0E011000BC80FB081001020408102040800093
:00000001FF
