:100000000200791200215002B2801200375002B271
:100010008112004D5002B28212006350E6B283801A
:10002000E230EA0812008530EA02C32230EAFD120B
:10003000008530EAF7D32230EB0812008530EB025E
:10004000C32230EBFD12008530EBF7D32230B2082B
:1000500012008530B202C32230B2FD12008530B2E8
:10006000F7D32230B30812008530B302C32230B375
:10007000FD12008530B3F7D322787FE4F6D8FD7502
:0E00800081070200037F127EEBDEFEDFFC2212
:00000001FF
